{
  "contractName": "Company",
  "abi": [
    {
      "constant": true,
      "inputs": [
        {
          "internalType": "address",
          "name": "",
          "type": "address"
        }
      ],
      "name": "companies",
      "outputs": [
        {
          "internalType": "string",
          "name": "cname",
          "type": "string"
        },
        {
          "internalType": "address",
          "name": "account",
          "type": "address"
        },
        {
          "internalType": "uint256",
          "name": "exist",
          "type": "uint256"
        },
        {
          "internalType": "bytes32",
          "name": "pass",
          "type": "bytes32"
        }
      ],
      "payable": false,
      "stateMutability": "view",
      "type": "function"
    },
    {
      "constant": true,
      "inputs": [
        {
          "internalType": "uint256",
          "name": "",
          "type": "uint256"
        }
      ],
      "name": "distributors",
      "outputs": [
        {
          "internalType": "string",
          "name": "distname",
          "type": "string"
        },
        {
          "internalType": "uint256",
          "name": "productid",
          "type": "uint256"
        },
        {
          "internalType": "string",
          "name": "distid",
          "type": "string"
        }
      ],
      "payable": false,
      "stateMutability": "view",
      "type": "function"
    },
    {
      "constant": true,
      "inputs": [
        {
          "internalType": "uint256",
          "name": "",
          "type": "uint256"
        }
      ],
      "name": "products",
      "outputs": [
        {
          "internalType": "string",
          "name": "pname",
          "type": "string"
        },
        {
          "internalType": "string",
          "name": "compid",
          "type": "string"
        },
        {
          "internalType": "uint256",
          "name": "id",
          "type": "uint256"
        }
      ],
      "payable": false,
      "stateMutability": "view",
      "type": "function"
    },
    {
      "constant": true,
      "inputs": [
        {
          "internalType": "uint256",
          "name": "",
          "type": "uint256"
        }
      ],
      "name": "retailers",
      "outputs": [
        {
          "internalType": "string",
          "name": "name",
          "type": "string"
        },
        {
          "internalType": "uint256",
          "name": "productid",
          "type": "uint256"
        },
        {
          "internalType": "string",
          "name": "retailerid",
          "type": "string"
        }
      ],
      "payable": false,
      "stateMutability": "view",
      "type": "function"
    },
    {
      "constant": false,
      "inputs": [
        {
          "internalType": "string",
          "name": "_name",
          "type": "string"
        },
        {
          "internalType": "string",
          "name": "_pass",
          "type": "string"
        }
      ],
      "name": "createCompany",
      "outputs": [],
      "payable": false,
      "stateMutability": "nonpayable",
      "type": "function"
    },
    {
      "constant": true,
      "inputs": [
        {
          "internalType": "string",
          "name": "_pass",
          "type": "string"
        }
      ],
      "name": "displayComp",
      "outputs": [
        {
          "internalType": "string",
          "name": "",
          "type": "string"
        }
      ],
      "payable": false,
      "stateMutability": "view",
      "type": "function"
    },
    {
      "constant": false,
      "inputs": [
        {
          "internalType": "string",
          "name": "_pname",
          "type": "string"
        },
        {
          "internalType": "string",
          "name": "_compid",
          "type": "string"
        }
      ],
      "name": "addProduct",
      "outputs": [
        {
          "internalType": "uint256",
          "name": "",
          "type": "uint256"
        }
      ],
      "payable": false,
      "stateMutability": "nonpayable",
      "type": "function"
    },
    {
      "constant": true,
      "inputs": [
        {
          "internalType": "uint256",
          "name": "_prodid",
          "type": "uint256"
        }
      ],
      "name": "verifyDistributor",
      "outputs": [
        {
          "internalType": "uint256",
          "name": "",
          "type": "uint256"
        },
        {
          "internalType": "string",
          "name": "",
          "type": "string"
        }
      ],
      "payable": false,
      "stateMutability": "view",
      "type": "function"
    },
    {
      "constant": false,
      "inputs": [
        {
          "internalType": "string",
          "name": "_licenseno",
          "type": "string"
        },
        {
          "internalType": "string",
          "name": "_distname",
          "type": "string"
        },
        {
          "internalType": "uint256",
          "name": "_productid",
          "type": "uint256"
        }
      ],
      "name": "addDistributorDetails",
      "outputs": [
        {
          "internalType": "string",
          "name": "",
          "type": "string"
        }
      ],
      "payable": false,
      "stateMutability": "nonpayable",
      "type": "function"
    },
    {
      "constant": true,
      "inputs": [
        {
          "internalType": "uint256",
          "name": "_productid",
          "type": "uint256"
        }
      ],
      "name": "verifyRetailer",
      "outputs": [
        {
          "internalType": "string",
          "name": "",
          "type": "string"
        },
        {
          "internalType": "string",
          "name": "",
          "type": "string"
        },
        {
          "internalType": "uint256",
          "name": "",
          "type": "uint256"
        }
      ],
      "payable": false,
      "stateMutability": "view",
      "type": "function"
    },
    {
      "constant": false,
      "inputs": [
        {
          "internalType": "string",
          "name": "_name",
          "type": "string"
        },
        {
          "internalType": "string",
          "name": "_retailerlicenseno",
          "type": "string"
        },
        {
          "internalType": "uint256",
          "name": "_productid",
          "type": "uint256"
        }
      ],
      "name": "addRetailerDetails",
      "outputs": [
        {
          "internalType": "string",
          "name": "",
          "type": "string"
        }
      ],
      "payable": false,
      "stateMutability": "nonpayable",
      "type": "function"
    },
    {
      "constant": true,
      "inputs": [
        {
          "internalType": "uint256",
          "name": "_prodid",
          "type": "uint256"
        }
      ],
      "name": "verificationPortal",
      "outputs": [
        {
          "internalType": "string",
          "name": "",
          "type": "string"
        },
        {
          "internalType": "string",
          "name": "",
          "type": "string"
        },
        {
          "internalType": "string",
          "name": "",
          "type": "string"
        },
        {
          "internalType": "uint256",
          "name": "",
          "type": "uint256"
        },
        {
          "internalType": "bool",
          "name": "",
          "type": "bool"
        }
      ],
      "payable": false,
      "stateMutability": "view",
      "type": "function"
    }
  ],
  "bytecode": "0x608060405234801561001057600080fd5b50612023806100206000396000f3fe608060405234801561001057600080fd5b50600436106100b35760003560e01c8063761976461161007157806376197646146108b95780637acc0b20146109d3578063897ec7df14610aed5780638d6f2c2514610c07578063ca2efb5514610d3b578063f14513f214610ea1576100b3565b80623c1b5e146100b8578063023438fb14610249578063183828211461041e57806333f34313146105f3578063355e6ce8146106a157806350b492ba1461079f575b600080fd5b6100e4600480360360208110156100ce57600080fd5b8101908080359060200190929190505050610ff3565b6040518080602001806020018060200186815260200185151515158152602001848103845289818151815260200191508051906020019080838360005b8381101561013c578082015181840152602081019050610121565b50505050905090810190601f1680156101695780820380516001836020036101000a031916815260200191505b50848103835288818151815260200191508051906020019080838360005b838110156101a2578082015181840152602081019050610187565b50505050905090810190601f1680156101cf5780820380516001836020036101000a031916815260200191505b50848103825287818151815260200191508051906020019080838360005b838110156102085780820151818401526020810190506101ed565b50505050905090810190601f1680156102355780820380516001836020036101000a031916815260200191505b509850505050505050505060405180910390f35b6103a36004803603606081101561025f57600080fd5b810190808035906020019064010000000081111561027c57600080fd5b82018360208201111561028e57600080fd5b803590602001918460018302840111640100000000831117156102b057600080fd5b91908080601f016020809104026020016040519081016040528093929190818152602001838380828437600081840152601f19601f8201169050808301925050505050505091929192908035906020019064010000000081111561031357600080fd5b82018360208201111561032557600080fd5b8035906020019184600183028401116401000000008311171561034757600080fd5b91908080601f016020809104026020016040519081016040528093929190818152602001838380828437600081840152601f19601f82011690508083019250505050505050919291929080359060200190929190505050611169565b6040518080602001828103825283818151815260200191508051906020019080838360005b838110156103e35780820151818401526020810190506103c8565b50505050905090810190601f1680156104105780820380516001836020036101000a031916815260200191505b509250505060405180910390f35b6105786004803603606081101561043457600080fd5b810190808035906020019064010000000081111561045157600080fd5b82018360208201111561046357600080fd5b8035906020019184600183028401116401000000008311171561048557600080fd5b91908080601f016020809104026020016040519081016040528093929190818152602001838380828437600081840152601f19601f820116905080830192505050505050509192919290803590602001906401000000008111156104e857600080fd5b8201836020820111156104fa57600080fd5b8035906020019184600183028401116401000000008311171561051c57600080fd5b91908080601f016020809104026020016040519081016040528093929190818152602001838380828437600081840152601f19601f82011690508083019250505050505050919291929080359060200190929190505050611202565b6040518080602001828103825283818151815260200191508051906020019080838360005b838110156105b857808201518184015260208101905061059d565b50505050905090810190601f1680156105e55780820380516001836020036101000a031916815260200191505b509250505060405180910390f35b61061f6004803603602081101561060957600080fd5b810190808035906020019092919050505061129b565b6040518083815260200180602001828103825283818151815260200191508051906020019080838360005b8381101561066557808201518184015260208101905061064a565b50505050905090810190601f1680156106925780820380516001836020036101000a031916815260200191505b50935050505060405180910390f35b6106e3600480360360208110156106b757600080fd5b81019080803573ffffffffffffffffffffffffffffffffffffffff1690602001909291905050506113fe565b60405180806020018573ffffffffffffffffffffffffffffffffffffffff1673ffffffffffffffffffffffffffffffffffffffff168152602001848152602001838152602001828103825286818151815260200191508051906020019080838360005b83811015610761578082015181840152602081019050610746565b50505050905090810190601f16801561078e5780820380516001836020036101000a031916815260200191505b509550505050505060405180910390f35b6107cb600480360360208110156107b557600080fd5b81019080803590602001909291905050506114e6565b604051808060200184815260200180602001838103835286818151815260200191508051906020019080838360005b838110156108155780820151818401526020810190506107fa565b50505050905090810190601f1680156108425780820380516001836020036101000a031916815260200191505b50838103825284818151815260200191508051906020019080838360005b8381101561087b578082015181840152602081019050610860565b50505050905090810190601f1680156108a85780820380516001836020036101000a031916815260200191505b509550505050505060405180910390f35b6108e5600480360360208110156108cf57600080fd5b8101908080359060200190929190505050611640565b604051808060200180602001848152602001838103835286818151815260200191508051906020019080838360005b8381101561092f578082015181840152602081019050610914565b50505050905090810190601f16801561095c5780820380516001836020036101000a031916815260200191505b50838103825285818151815260200191508051906020019080838360005b8381101561099557808201518184015260208101905061097a565b50505050905090810190601f1680156109c25780820380516001836020036101000a031916815260200191505b509550505050505060405180910390f35b6109ff600480360360208110156109e957600080fd5b81019080803590602001909291905050506117a6565b604051808060200180602001848152602001838103835286818151815260200191508051906020019080838360005b83811015610a49578082015181840152602081019050610a2e565b50505050905090810190601f168015610a765780820380516001836020036101000a031916815260200191505b50838103825285818151815260200191508051906020019080838360005b83811015610aaf578082015181840152602081019050610a94565b50505050905090810190601f168015610adc5780820380516001836020036101000a031916815260200191505b509550505050505060405180910390f35b610b1960048036036020811015610b0357600080fd5b8101908080359060200190929190505050611900565b604051808060200184815260200180602001838103835286818151815260200191508051906020019080838360005b83811015610b63578082015181840152602081019050610b48565b50505050905090810190601f168015610b905780820380516001836020036101000a031916815260200191505b50838103825284818151815260200191508051906020019080838360005b83811015610bc9578082015181840152602081019050610bae565b50505050905090810190601f168015610bf65780820380516001836020036101000a031916815260200191505b509550505050505060405180910390f35b610cc060048036036020811015610c1d57600080fd5b8101908080359060200190640100000000811115610c3a57600080fd5b820183602082011115610c4c57600080fd5b80359060200191846001830284011164010000000083111715610c6e57600080fd5b91908080601f016020809104026020016040519081016040528093929190818152602001838380828437600081840152601f19601f820116905080830192505050505050509192919290505050611a5a565b6040518080602001828103825283818151815260200191508051906020019080838360005b83811015610d00578082015181840152602081019050610ce5565b50505050905090810190601f168015610d2d5780820380516001836020036101000a031916815260200191505b509250505060405180910390f35b610e8b60048036036040811015610d5157600080fd5b8101908080359060200190640100000000811115610d6e57600080fd5b820183602082011115610d8057600080fd5b80359060200191846001830284011164010000000083111715610da257600080fd5b91908080601f016020809104026020016040519081016040528093929190818152602001838380828437600081840152601f19601f82011690508083019250505050505050919291929080359060200190640100000000811115610e0557600080fd5b820183602082011115610e1757600080fd5b80359060200191846001830284011164010000000083111715610e3957600080fd5b91908080601f016020809104026020016040519081016040528093929190818152602001838380828437600081840152601f19601f820116905080830192505050505050509192919290505050611ba7565b6040518082815260200191505060405180910390f35b610ff160048036036040811015610eb757600080fd5b8101908080359060200190640100000000811115610ed457600080fd5b820183602082011115610ee657600080fd5b80359060200191846001830284011164010000000083111715610f0857600080fd5b91908080601f016020809104026020016040519081016040528093929190818152602001838380828437600081840152601f19601f82011690508083019250505050505050919291929080359060200190640100000000811115610f6b57600080fd5b820183602082011115610f7d57600080fd5b80359060200191846001830284011164010000000083111715610f9f57600080fd5b91908080601f016020809104026020016040519081016040528093929190818152602001838380828437600081840152601f19601f820116905080830192505050505050509192919290505050611cc0565b005b60608060606000808580600360008381526020019081526020016000206001015414611087576040517f08c379a00000000000000000000000000000000000000000000000000000000081526004018080602001828103825260108152602001807f496e76616c69642052657461696c65720000000000000000000000000000000081525060200191505060405180910390fd5b60608060006110958a611640565b92509250925082600360008c815260200190815260200160002060020183836001838054600181600116156101000203166002900480601f01602080910402602001604051908101604052809291908181526020018280546001816001161561010002031660029004801561114b5780601f106111205761010080835404028352916020019161114b565b820191906000526020600020905b81548152906001019060200180831161112e57829003601f168201915b50505050509350985098509850985098505050505091939590929450565b60606040518060600160405280848152602001838152602001858152506002600084815260200190815260200160002060008201518160000190805190602001906111b5929190611f00565b506020820151816001015560408201518160020190805190602001906111dc929190611f00565b50905050604051806060016040528060268152602001611fc96026913990509392505050565b606060405180606001604052808581526020018381526020018481525060036000848152602001908152602001600020600082015181600001908051906020019061124e929190611f00565b50602082015181600101556040820151816002019080519060200190611275929190611f00565b50905050604051806060016040528060238152602001611fa66023913990509392505050565b60006060828060016000838152602001908152602001600020600201541461132b576040517f08c379a00000000000000000000000000000000000000000000000000000000081526004018080602001828103825260128152602001807f496e76616c69642050726f64756374204944000000000000000000000000000081525060200191505060405180910390fd5b600160008581526020019081526020016000206002015460016000868152602001908152602001600020600101808054600181600116156101000203166002900480601f0160208091040260200160405190810160405280929190818152602001828054600181600116156101000203166002900480156113ed5780601f106113c2576101008083540402835291602001916113ed565b820191906000526020600020905b8154815290600101906020018083116113d057829003601f168201915b505050505090509250925050915091565b6000602052806000526040600020600091509050806000018054600181600116156101000203166002900480601f0160208091040260200160405190810160405280929190818152602001828054600181600116156101000203166002900480156114aa5780601f1061147f576101008083540402835291602001916114aa565b820191906000526020600020905b81548152906001019060200180831161148d57829003601f168201915b5050505050908060010160009054906101000a900473ffffffffffffffffffffffffffffffffffffffff16908060020154908060030154905084565b6002602052806000526040600020600091509050806000018054600181600116156101000203166002900480601f0160208091040260200160405190810160405280929190818152602001828054600181600116156101000203166002900480156115925780601f1061156757610100808354040283529160200191611592565b820191906000526020600020905b81548152906001019060200180831161157557829003601f168201915b505050505090806001015490806002018054600181600116156101000203166002900480601f0160208091040260200160405190810160405280929190818152602001828054600181600116156101000203166002900480156116365780601f1061160b57610100808354040283529160200191611636565b820191906000526020600020905b81548152906001019060200180831161161957829003601f168201915b5050505050905083565b606080600083806002600083815260200190815260200160002060010154146116d1576040517f08c379a00000000000000000000000000000000000000000000000000000000081526004018080602001828103825260138152602001807f496e76616c6964204469737472696275746f720000000000000000000000000081525060200191505060405180910390fd5b600060606116de8761129b565b91509150806002600089815260200190815260200160002060020183818054600181600116156101000203166002900480601f01602080910402602001604051908101604052809291908181526020018280546001816001161561010002031660029004801561178f5780601f106117645761010080835404028352916020019161178f565b820191906000526020600020905b81548152906001019060200180831161177257829003601f168201915b505050505091509550955095505050509193909250565b6001602052806000526040600020600091509050806000018054600181600116156101000203166002900480601f0160208091040260200160405190810160405280929190818152602001828054600181600116156101000203166002900480156118525780601f1061182757610100808354040283529160200191611852565b820191906000526020600020905b81548152906001019060200180831161183557829003601f168201915b505050505090806001018054600181600116156101000203166002900480601f0160208091040260200160405190810160405280929190818152602001828054600181600116156101000203166002900480156118f05780601f106118c5576101008083540402835291602001916118f0565b820191906000526020600020905b8154815290600101906020018083116118d357829003601f168201915b5050505050908060020154905083565b6003602052806000526040600020600091509050806000018054600181600116156101000203166002900480601f0160208091040260200160405190810160405280929190818152602001828054600181600116156101000203166002900480156119ac5780601f10611981576101008083540402835291602001916119ac565b820191906000526020600020905b81548152906001019060200180831161198f57829003601f168201915b505050505090806001015490806002018054600181600116156101000203166002900480601f016020809104026020016040519081016040528092919081815260200182805460018160011615610100020316600290048015611a505780601f10611a2557610100808354040283529160200191611a50565b820191906000526020600020905b815481529060010190602001808311611a3357829003601f168201915b5050505050905083565b606081806040516020018080602001828103825283818151815260200191508051906020019080838360005b83811015611aa1578082015181840152602081019050611a86565b50505050905090810190601f168015611ace5780820380516001836020036101000a031916815260200191505b5092505050604051602081830303815290604052805190602001206000803373ffffffffffffffffffffffffffffffffffffffff1673ffffffffffffffffffffffffffffffffffffffff1681526020019081526020016000206003015414611b9e576040517f08c379a00000000000000000000000000000000000000000000000000000000081526004018080602001828103825260128152602001807f496e76616c696420436f6d70616e79204944000000000000000000000000000081525060200191505060405180910390fd5b82915050919050565b600080836040516020018080602001828103825283818151815260200191508051906020019080838360005b83811015611bee578082015181840152602081019050611bd3565b50505050905090810190601f168015611c1b5780820380516001836020036101000a031916815260200191505b509250505060405160208183030381529060405280519060200120905060405180606001604052808581526020018481526020018260001c815250600160008360001c81526020019081526020016000206000820151816000019080519060200190611c88929190611f00565b506020820151816001019080519060200190611ca5929190611f00565b50604082015181600201559050508060001c91505092915050565b3360016000808373ffffffffffffffffffffffffffffffffffffffff1673ffffffffffffffffffffffffffffffffffffffff168152602001908152602001600020600201541415611d79576040517f08c379a00000000000000000000000000000000000000000000000000000000081526004018080602001828103825260158152602001807f436f6d70616e7920416c7265616479204164646564000000000000000000000081525060200191505060405180910390fd5b6000826040516020018080602001828103825283818151815260200191508051906020019080838360005b83811015611dbf578082015181840152602081019050611da4565b50505050905090810190601f168015611dec5780820380516001836020036101000a031916815260200191505b509250505060405160208183030381529060405280519060200120905060405180608001604052808581526020013373ffffffffffffffffffffffffffffffffffffffff16815260200160018152602001828152506000803373ffffffffffffffffffffffffffffffffffffffff1673ffffffffffffffffffffffffffffffffffffffff1681526020019081526020016000206000820151816000019080519060200190611e9b929190611f00565b5060208201518160010160006101000a81548173ffffffffffffffffffffffffffffffffffffffff021916908373ffffffffffffffffffffffffffffffffffffffff160217905550604082015181600201556060820151816003015590505050505050565b828054600181600116156101000203166002900490600052602060002090601f016020900481019282601f10611f4157805160ff1916838001178555611f6f565b82800160010185558215611f6f579182015b82811115611f6e578251825591602001919060010190611f53565b5b509050611f7c9190611f80565b5090565b611fa291905b80821115611f9e576000816000905550600101611f86565b5090565b9056fe52657461696c65722044657461696c73204164646564205375636365737366756c6c794469737472696275746f722044657461696c73204164646564205375636365737366756c6c79a265627a7a72315820c5bb5efc8d83db5fcf390a62fcb990705f16ccca1c5e87f472893141bca94eda64736f6c63430005100032",
  "source": "pragma solidity >=0.4.21 <0.7.0;\n\n\ncontract Company {\n    //Structure of company\n    struct TheCompany {\n        string cname; //Name of the Company\n        address account; //Account address for the Company\n        uint exist; //Boolean Value to check the Existence of Company\n        bytes32 pass; //Password/ID of the company\n    }\n\n    //to store the set of companies\n    mapping(address => TheCompany) public companies;\n\n    //to ensure that a account can story only one company details\n    modifier isAdd(address _add) {\n        require(companies[_add].exist != 1,\"Company Already Added\");\n        _;\n    }\n\n    //to add company details\n    function createCompany(string memory _name, string memory _pass)\n        public\n        isAdd(msg.sender)\n    {\n        bytes32 val = keccak256(abi.encode(_pass)); //Here we will store the hash of Company ID/Password\n        companies[msg.sender] = TheCompany(_name, msg.sender, 1, val); //Adding the Company\n    }\n\n    //structure for product\n    struct Product {\n        string pname; //Name of the Product\n        string compid; //The ID of the Company to which it belongs\n        uint id; //The Unique ID of the Product (Hash of Product Name)\n    }\n\n    //to ensure that entered company id is correct\n    modifier isComp(string memory _p) {\n        require(companies[msg.sender].pass == keccak256(abi.encode(_p)),\"Invalid Company ID\");\n        _;\n    }\n\n    //to authenticate using Company ID while adding product\n    function displayComp(string memory _pass)\n        public view\n        isComp(_pass)\n        returns (string memory)\n    {\n        return _pass; //Return Company ID\n    }\n\n    //to store the set of product details\n    mapping(uint => Product) public products;\n\n    //to add the product details (can only be used once authenticated(displayComp))\n    function addProduct(string memory _pname, string memory _compid)\n        public\n        returns (uint)\n    {\n        bytes32 val = keccak256(abi.encode(_pname)); //Obtaining the Hash of Product Name(_pname)\n        products[uint(val)] = Product(\n            _pname,\n            _compid,\n            uint(val) //Storing the Hash in Integer form as Product ID\n        );\n        return uint(val); //Return the Integer form of Product ID(Hash)\n    }\n\n    //to ensure that entered product id is correct\n    modifier isProd(uint _id) {\n        require(\n            products[_id].id == _id,\"Invalid Product ID\"\n        );\n        _;\n    }\n\n    //to authenticate using Product ID while adding Distributor details\n    function verifyDistributor(uint _prodid)\n        public view\n        isProd(_prodid)\n        returns (uint,string memory)\n    {\n        return (products[_prodid].id,products[_prodid].compid); //Return the Product ID and Company ID\n    }\n\n    //Structure for Distributor\n    struct Distributor {\n        string distname; //Name of the Distributor\n        uint productid; //The Product ID\n        string distid; //The License Number of Distributor\n    }\n\n    //to store set of distributor details\n    mapping(uint => Distributor) public distributors;\n\n    //to add distributor details (can only be used once authenticated(verifyDistributor))\n    function addDistributorDetails(string memory _licenseno,string memory _distname, uint _productid)\n        public\n        returns (string memory)\n    {\n        distributors[_productid] = Distributor(_distname,_productid, _licenseno);\n        return 'Distributor Details Added Successfully';\n    }\n\n    //to verify that entered Product id is correct\n    modifier isDist(uint _prodid) {\n        require(distributors[_prodid].productid == _prodid,\"Invalid Distributor\");\n        _;\n    }\n\n    //to authenticate using Product ID while adding Retailer details\n    function verifyRetailer(uint _productid)\n        public view\n        isDist(_productid)\n        returns (string memory,string memory,uint)\n    {\n        (uint prodid,string memory compid) = verifyDistributor(_productid);\n        return (compid,distributors[_productid].distid,prodid); //Return Company ID, Distributors License number and Product ID\n    }\n\n    //Structure for Retailer\n    struct Retailer {\n        string name; //Name of the Retailer\n        uint productid; //The Product ID\n        string retailerid; //The Retailers License Number\n    }\n\n    //to store set of Retailer details\n    mapping(uint => Retailer) public retailers;\n\n    //to add Retailer details (can only be used once authenticated(verifyRetailer))\n    function addRetailerDetails(string memory _name,string memory _retailerlicenseno, uint _productid)\n        public\n        returns (string memory)\n    {\n        retailers[_productid] = Retailer(_name, _productid,_retailerlicenseno);\n        return \"Retailer Details Added Successfully\";\n    }\n\n    //to verify whether entered Product id is correct\n    modifier isRet(uint _pass) {\n        require(retailers[_pass].productid == _pass,\"Invalid Retailer\");\n        _;\n    }\n\n    //to authenticate the Product Using Product ID at User Side\n    function verificationPortal(uint _prodid) public view isRet(_prodid) returns (string memory,string memory,string memory,uint,bool) {\n        (string memory compid,string memory distriID,uint produID) = verifyRetailer(_prodid);\n        return (compid,retailers[_prodid].retailerid,distriID,produID,true); /*Return the Company ID,Retailer's License Number,\n         Distributor's License Number, Product ID and True(indicating that Product Exist)*/\n    }\n}\n",
  "sourcePath": "F:\\MY_PROJECTS\\FINAL_PROJECT\\server\\solidity\\contracts\\Product.sol",
  "compiler": {
    "name": "solc",
    "version": "0.5.16+commit.9c3226ce.Emscripten.clang"
  },
  "schemaVersion": "3.0.23",
  "updatedAt": "2020-05-23T12:34:38.807Z",
  "devdoc": {
    "methods": {}
  },
  "userdoc": {
    "methods": {}
  }
}